:060000000A128A110E280D
:10000800FE00030EF9000A08FA007F08FB000A1236
:100018008A11862A0A128A111128F001F101F201C7
:10002800F301F401F50183120313BF01C001C101FB
:10003800C201C301C40183010A128A11B22AC33062
:10004800831203139F05073083120313BB00BB0BF6
:100058002B280000831203139F149F183428352877
:1000680031280C131E08BB00BC013B08AF003C083C
:10007800B0000030B100B200FF30B3000030B4006F
:100088003F30B5000030B6007D30B7000030B80012
:100098000A128A1151220A128A1183120313300894
:1000A800C4002F08C3004308880003304305C1007B
:1000B80000304405C2004408BC004308BB000310DC
:1000C800BC0CBB0C0310BC0CBB0CFF303B05BF00C9
:1000D80000303C05C0004108BB00BB0E17083B06BA
:1000E800CF393B0697003F0895001F08C3390438ED
:1000F8009F00073083120313BB00BB0B812800004D
:10010800831203139F149F188A288B2887280C139F
:100118001E08BB00BC013B08AF003C08B000003023
:10012800B100B200FF30B3000030B4003F30B5007A
:100138000030B6007D30B7000030B8000A128A11CE
:1001480051220A128A11831203133008C4002F089F
:10015800C30003304305C10000304405C200440811
:10016800BC004308BB000310BC0CBB0C0310BC0C48
:10017800BB0CFF303B05BF0000303C05C000410808
:100188000139BB00BB0E1D083B06EF393B069D003D
:100198004208BC004108BB000310BC0CBB0C3B0868
:1001A8000139BD00BD0EBD0D1D083D06DF393D06F8
:1001B8009D003F089B001F08C33908389F0007307F
:1001C80083120313BB00BB0BE72800008312031341
:1001D8009F149F18F028F128ED280C131E08BB0067
:1001E800BC013B08AF003C08B0000030B100B200D1
:1001F800FF30B3000030B4000730B5000030B6005F
:100208001130B7000030B8000A128A1151220A12C0
:100218008A11831203133008F5002F08F4001F0811
:10022800C3390C389F00073083120313BB00BB0B84
:100238001B290000831203139F149F1824292529C2
:1002480021290C131E08BB00BC013B08AF003C0869
:10025800B0000030B100B200FF30B3000030B4008D
:100268000730B5000030B6001130B7000030B800D4
:100278000A128A1151220A128A11831203133008B2
:10028800F3002F08F200080083120313AC01A71F24
:100298004E294F295629A609A709A60A0319A70A0C
:1002A800AC01AC0AA91F59295A296329A809A90927
:1002B800A80A0319A90A0130AA002A08AC06AD0148
:1002C800AE012608270403196A296B29A229AB0164
:1002D800AB0A792901300310A60DA70DFF3E031DB7
:1002E8006F290130AA002A08AB07A71F7C297D299E
:1002F8006E2901300310AD0DAE0DFF3E031D7E29A2
:1003080027082902031D8A2926082802031C8D298B
:100318008E2995292608A8022708031CA903A902E3
:100328002D1401300310A70CA60CFF3E031D9629BF
:100338000130AB02031DA129A2297D292C0803192C
:10034800A629A729AC29AD09AE09AD0A0319AE0A39
:100358002E08A7002D08A600080083120313A0008A
:1003680007302006031DB929BA29BE297030831623
:1003780003138F04063083122006031DC429C529E0
:10038800CB29831603130F088F3960388F00053087
:1003980083122006031DD129D229D82983160313D5
:1003A8000F088F3950388F00043083122006031D40
:1003B800DE29DF29E529831603130F088F39403812
:1003C8008F00033083122006031DEB29EC29F22944
:1003D800831603130F088F3930388F0002308312C9
:1003E8002006031DF829F929FF29831603130F088E
:1003F8008F3920388F0083122003031D042A052A11
:100408000B2A831603130F088F3910388F008312B5
:100418002008031D102A112A152A8F30831603136A
:100428008F05831603130F14080083120313051096
:100438008316031305148316031708148312031372
:1004480085108316031385148316031788148312E3
:1004580003130511831603130515831603170815CF
:100468008312031385118316031385158316031747
:100478008815831203139F131F17831603139F12E4
:100488001F129F13831203131F14073083120313C1
:10049800A000A00B4D2A00000800831203133408A3
:1004A800A7003308A60035083702A0003608031C49
:1004B800360A3802A10031082F02A2003208031CB4
:1004C800320A3002A3000A128A11DC220A128A11A7
:1004D800831203132108A9002008A8000A128A1110
:1004E80048210A128A118312031335082607B90016
:1004F80036080318360A2707BA003A08B000390840
:10050800AF0008000B1D892A8A2AA92A0B1164301A
:1005180083120313810007147508F7007408F600A6
:100528000A128A1125230A128A118312031307104B
:1005380087157308F7007208F6000A128A11252336
:100548000A128A118312031387117B08FF007A08A5
:100558008A00790E8300FE0E7E0E09000A128A11A7
:1005680053230A128A1104300A128A11B1210A127D
:100578008A110A128A1119220A128A110A128A1178
:1005880003230A128A110A128A1141230A128A11B4
:100598000A128A1123200A128A1152308312031375
:1005A800BE00BE0BD52A0000CC2A0A128A110E28DA
:1005B80083120313A401A501201CE32AE42AEA2AD2
:1005C8002208A4070318A50A2308A5070130031069
:1005D800A20DA30DFF3E031DEB2A01300310A10C51
:1005E800A00CFF3E031DF22A20082104031DFD2A4A
:1005F800FE2AE02A2508A1002408A0000800831686
:1006080003130715FE3092000C3083120313970072
:100618008C100330920412158C1C132B142B102BE6
:1006280083160313071187140C30831203139D00DC
:100638008C108C1C202B212B1D2B83160313871049
:100648000800332B0330F800F80B282B2B2B7608E7
:10065800FF3EF60077080318013EFF3EF7007708D3
:10066800803AFF0080307F02031D3C2B0130760268
:1006780003183F2B402B262B08008B178B160B11CA
:1006880083160313811281110108F8390438810097
:100698006430831203138100F001F101080083160E
:1006A80003178901831603138601870188018312C2
:0806B80003138701880108000B
:08400000FF3FFF3FFF3FFF3FC0
:04400E00D420FF3F7C
:00000001FF
