:060000000A128A110E280D
:10000800FE00030EF2000A08F3007F08F4000A124B
:100018008A11892A0A128A111128F501F601F701B5
:10002800F80183134430840054300A128A113925A8
:100038000A128A1183010A128A116829C3308312AD
:1000480003139F05073083120313BB00BB0B2A2839
:100058000000831203139F149F1833283428302874
:100068000C1377087804031D3A283B285C281E08DF
:10007800BB00BC013B08AF003C08B0000030B10039
:10008800B200FF30B3000030B4003F30B50000309C
:10009800B6007D30B7000030B8000A128A113B2440
:1000A8000A128A11831203133008D3002F08D200D2
:1000B80003305205CE0000305305CF005308BC0072
:1000C8005208BB000310BC0CBB0C0310BC0CBB0CCF
:1000D800FF303B05CC0000303C05CD004E08BB008E
:1000E800BB0E17083B06CF393B0697004C08950016
:1000F8001F08C33904389F00073083120313BB005D
:10010800BB0B84280000831203139F149F188D28AB
:100118008E288A280C1377087804031D94289528BC
:10012800B6281E08BB00BC013B08AF003C08B00065
:100138000030B100B200FF30B3000030B4003F30EF
:10014800B5000030B6007D30B7000030B8000A12A4
:100158008A113B240A128A11831203133008D10032
:100168002F08D00003305005CE0000305105CF00D5
:100178005108BC005008BB000310BC0CBB0C03109A
:10018800BC0CBB0CFF303B05CC0000303C05CD005F
:100198004E080139BB00BB0E1D083B06EF393B0674
:1001A8009D004F08BC004E08BB000310BC0CBB0CE4
:1001B8003B080139BD00BD0EBD0D1D083D06DF39E8
:1001C8003D069D004C089B001F08C33908389F0056
:1001D800073083120313BB00BB0BF0280000831207
:1001E80003139F149F18F928FA28F6280C13770888
:1001F8007804031D0029012922291E08BB00BC011F
:100208003B08AF003C08B0000030B100B200FF303E
:10021800B3000030B4000930B5000030B6001B3020
:10022800B7000030B8000A128A113B240A128A115A
:10023800831203133008CB002F08CA001F08C339E4
:100248000C389F00073083120313BB00BB0B2A290D
:100258000000831203139F149F183329342930296F
:100268000C1377087804031D3A293B295C291E08DA
:10027800BB00BC013B08AF003C08B0000030B10037
:10028800B200FF30B3000030B4000930B5000030D0
:10029800B6001630B7000030B8000A128A113B24A5
:1002A8000A128A11831203133008C9002F08C800E4
:1002B800113083120313BC003930BB00BB0B622919
:1002C800BC0B6229672908000A128A111F250A1225
:1002D8008A1104300A128A119B230A128A110A12FF
:1002E8008A1103240A128A110A128A11B9240A12DD
:1002F8008A110A128A110D250A128A110A128A1104
:100308002D250A128A110130F5000030F6008312FB
:100318000313C401C50177087804031D942995299E
:10032800042A0A128A1122200A128A1175088312D5
:100338000313880044034504031DA329A429FC29A9
:10034800C401C50175037604031DAB29AC29AF2987
:10035800C001C101D329023075067604031DB529F1
:10036800B629BB290430C0000030C100D3290330AE
:1003780075067604031DC129C229C7290830C000A3
:100388000030C100D329043075067604031DCD2939
:10039800CE29D3290C30C0000030C100D32952081F
:1003A800A00040080A128A1197240A128A1183129F
:1003B80003135008A0004008013E0A128A1197242E
:1003C8000A128A11831203134A08A0004008023E49
:1003D8000A128A1197240A128A11831203134808F1
:1003E800A0004008033E0A128A1197240A128A11B3
:1003F800523083120313BE00BE0B002A00008F295F
:1004080077037804031D092A0A2A8F298312031304
:1004180044034504031D112A122A7C2AC401C5017C
:1004280075037604031D192A1A2A1D2AC201C3015D
:10043800412A023075067604031D232A242A292A14
:100448000430C2000030C300412A03307506760428
:10045800031D2F2A302A352A0830C2000030C30075
:10046800412A043075067604031D3B2A3C2A412A9A
:100478000C30C2000030C300412A42080A128A1117
:10048800DB240A128A1183120313BE00BF013E083F
:10049800D2003F08D3004208013E0A128A11DB2429
:1004A8000A128A1183120313BE00BF013E08D0004E
:1004B8003F08D1004208023E0A128A11DB240A12C0
:1004C8008A1183120313BE00BF013E08CA003F0809
:1004D800CB004208033E0A128A11DB240A128A1151
:1004E80083120313BE00BF013E08C8003F08C900BD
:1004F8000A128A1122200A128A117508831203131C
:100508008800FC290A128A110E280B1D8C2A8D2AB4
:10051800AC2A0B11643083120313810007144B08B3
:10052800F1004A08F0000A128A11F6240A128A1108
:1005380083120313071087154908F1004808F000D3
:100548000A128A11F6240A128A11831203138711D8
:100558000B1CAF2AB02A292B83120313861BB52A3A
:10056800B62AD22A861FB92ABA2AB62A7808803A21
:10057800FF0080307F02031DC32A01307702031871
:10058800C62AC72AD02A7708013EF7007808031838
:10059800013E003EF800D22AF701F8018312031346
:1005A800061BD72AD82AF62A061FDB2ADC2AD82ACD
:1005B8007608803AFF0080307F02031DE52A043068
:1005C80075020318E82AE92AF22A7508013EF5009F
:1005D80076080318013E003EF600F62A0130F500C1
:1005E8000030F60083120313861AFB2AFC2A1A2B02
:1005F800861EFF2A002BFC2A7608803AFF008030EE
:100608007F02031D092B02307502031C0C2B0D2BD6
:10061800162B7508FF3EF50076080318013EFF3ECD
:10062800F6001A2B0430F5000030F600831203138D
:10063800061A1F2B202B282B061E232B242B202B9E
:100648000130C4000030C5000B107408FF007308A7
:100658008A00720E8300FE0E7E0E090083120313B9
:10066800AC01A71F382B392B402BA609A709A60ACE
:100678000319A70AAC01AC0AA91F432B442B4D2B25
:10068800A809A909A80A0319A90A0130AA002A0871
:10069800AC06AD01AE01260827040319542B552BCF
:1006A8008C2BAB01AB0A632B01300310A60DA70DF1
:1006B800FF3E031D592B0130AA002A08AB07A71FCC
:1006C800662B672B582B01300310AD0DAE0DFF3E86
:1006D800031D682B27082902031D742B26082802EE
:1006E800031C772B782B7F2B2608A8022708031CCE
:1006F800A903A9022D1401300310A70CA60CFF3E74
:10070800031D802B0130AB02031D8B2B8C2B672B19
:100718002C080319902B912B962BAD09AE09AD0A25
:100728000319AE0A2E08A7002D08A6000800831298
:100738000313A00007302006031DA32BA42BA82B0E
:100748007030831603138F04063083122006031DAE
:10075800AE2BAF2BB52B831603130F088F396038D8
:100768008F00053083122006031DBB2BBC2BC22B28
:10077800831603130F088F3950388F000430831203
:100788002006031DC82BC92BCF2B831603130F0874
:100798008F3940388F00033083122006031DD52B74
:1007A800D62BDC2B831603130F088F3930388F00B4
:1007B800023083122006031DE22BE32BE92B83165C
:1007C80003130F088F3920388F0083122003031D6D
:1007D800EE2BEF2BF52B831603130F088F391038E8
:1007E8008F0083122008031DFA2BFB2BFF2B8F3061
:1007F800831603138F05831603130F14080083123F
:10080800031305108316031305148316031708141E
:100818008312031385108316031385148316031795
:100828008814831203130511831603130515831601
:1008380003170815831203138511831603138515EF
:10084800831603178815831203139F131F17831624
:1008580003139F121F129F13831203131F140730D1
:1008680083120313A000A00B372C0000080083128A
:1008780003133408A7003308A60035083702A00080
:100888003608031C360A3802A10031082F02A200DC
:100898003208031C320A3002A3000A128A1170249B
:1008A8000A128A11831203132108A9002008A8003C
:1008B8000A128A1132230A128A1183120313350885
:1008C8002607B90036080318360A2707BA003A0877
:1008D800B0003908AF00080083120313A401A50172
:1008E800201C772C782C7E2C2208A4070318A50A34
:1008F8002308A50701300310A20DA30DFF3E031D19
:100908007F2C01300310A10CA00CFF3E031D862C88
:1009180020082104031D912C922C742C2508A10079
:100928002408A000080083120313A10083160317EC
:100938008C189F2CA02C9A2C831203132108831245
:1009480003178D00831203132008831203178C00EA
:10095800831603178C130C158B1355308D00AA3092
:100968008D008C140C118B170800831603130715C0
:10097800FE3092000C308312031397008C10033062
:10098800920412158C1CC92CCA2CC62C831603136E
:10099800071187140C30831203139D008C108C1CD4
:1009A800D62CD72CD32C8316031387100800831258
:1009B8000313A000831603178C18E32CE42CDE2CF9
:1009C8000C18E72CE82CDE2C831203132008831262
:1009D80003178D00831603178C130C148312031747
:1009E8000C080800FF2C7008FF3EF000710803187F
:1009F800013EFF3EF1007108803AFF0080307F021F
:100A0800031D082D0130700203180B2D0C2DF72C37
:100A180008008B178B160B11831603138112811193
:100A28000108F83904388100643083120313810007
:100A3800C601C7010800831603178901831603132B
:100A4800860180308700880183120313870188019B
:100A58000800F0308316031386008B150B10F03056
:100A68009600F03095008113080064008001840A24
:0A0A780004060319003404063A2DA9
:08400000FF3FFF3FFF3FFF3FC0
:04400E00D420FF3F7C
:00000001FF
