:060000000A128A110E280D
:10000800FE00030EF9000A08FA007F08FB000A1236
:100018008A11872A0A128A111128F001F101F201C6
:10002800F301F401F50183120313C401C501C601EC
:10003800C701C801C901CA01CB01CC01CD01CE015C
:10004800CF01D001D10183010A128A116629C33078
:10005800831203139F05073083120313BB00BB0BE6
:1000680033280000831203139F149F183C283D284F
:1000780039280C1372087304031D43284428652883
:100088001E08BB00BC013B08AF003C08B0000030B4
:10009800B100B200FF30B3000030B4003F30B5000B
:1000A8000030B6007D30B7000030B8000A128A115F
:1000B80039240A128A11831203133008D1002F0839
:1000C800D00003305005CC0000305105CD00510858
:1000D800BC005008BB000310BC0CBB0C0310BC0CCC
:1000E800BB0CFF303B05CA0000303C05CB004C0878
:1000F800BB00BB0E17083B06CF393B0697004A08E2
:1001080095001F08C33904389F0007308312031372
:10011800BB00BB0B8D280000831203139F149F188C
:100128009628972893280C1372087304031D9D289A
:100138009E28BF281E08BB00BC013B08AF003C0836
:10014800B0000030B100B200FF30B3000030B4009E
:100158003F30B5000030B6007D30B7000030B80041
:100168000A128A1139240A128A11831203133008D9
:10017800CF002F08CE0003304E05CC0000304F05CD
:10018800CD004F08BC004E08BB000310BC0CBB0CD4
:100198000310BC0CBB0CFF303B05CA0000303C050B
:1001A800CB004C080139BB00BB0E1D083B06EF39DC
:1001B8003B069D004D08BC004C08BB000310BC0C5E
:1001C800BB0C3B080139BD00BD0EBD0D1D083D0629
:1001D800DF393D069D004A089B001F08C3390838CF
:1001E8009F00073083120313BB00BB0BF9280000E4
:1001F800831203139F149F1802290329FF280C1345
:1002080072087304031D09290A292B291E08BB003B
:10021800BC013B08AF003C08B0000030B100B200A0
:10022800FF30B3000030B4000730B5000030B6002E
:100238001130B7000030B8000A128A1139240A12A6
:100248008A11831203133008F5002F08F4001F08E1
:10025800C3390C389F00073083120313BB00BB0B54
:1002680033290000831203139F149F183C293D294A
:1002780039290C1372087304031D4329442965297D
:100288001E08BB00BC013B08AF003C08B0000030B2
:10029800B100B200FF30B3000030B4000730B50041
:1002A8000030B6001130B7000030B8000A128A11C9
:1002B80039240A128A11831203133008C9002F083F
:1002C800C80008000A128A1122250A128A1104306D
:1002D8000A128A1199230A128A110A128A11012410
:1002E8000A128A110A128A11B7240A128A110A12EA
:1002F8008A1110250A128A110A128A1130250A1247
:100308008A110130F0000030F10083120313C40198
:10031800C50172087304031D92299329022A0A123F
:100328008A112B200A128A1170088312031388007D
:1003380044034504031DA129A229FA29C401C501C2
:1003480070037104031DA929AA29AD29C001C1019F
:10035800D129023070067104031DB329B429B929C3
:100368000430C0000030C100D12903307006710488
:10037800031DBF29C029C5290830C0000030C100AD
:10038800D129043070067104031DCB29CC29D12949
:100398000C30C0000030C100D1295008A00040082E
:1003A8000A128A1195240A128A11831203134E081D
:1003B800A0004008013E0A128A1195240A128A11E7
:1003C800740883120313A0004008023E0A128A111F
:1003D80095240A128A11831203134808A0004008C2
:1003E800033E0A128A1195240A128A115230831286
:1003F8000313BE00BE0BFE2900008D29720373048F
:10040800031D072A082A8D29831203134403450470
:10041800031D0F2A102A7A2AC401C501700371042A
:10042800031D172A182A1B2AC201C3013F2A0230BA
:1004380070067104031D212A222A272A0430C200CB
:100448000030C3003F2A033070067104031D2D2AB3
:100458002E2A332A0830C2000030C3003F2A043055
:1004680070067104031D392A3A2A3F2A0C30C2004B
:100478000030C3003F2A42080A128A11F5240A12E2
:100488008A1183120313BE00BF013E08D0003F0843
:10049800D1004208013E0A128A11F5240A128A1173
:1004A80083120313BE00BF013E08CE003F08CF00F1
:1004B8004208023E0A128A11F5240A128A1183128E
:1004C8000313BE00BF013E08F4003F08F5004208D0
:1004D800033E0A128A11F5240A128A1183120313A1
:1004E800BE00BF013E08C8003F08C9000A128A11B1
:1004F8002B200A128A117008831203138800FA2924
:100508000A128A110E280B1D8A2A8B2AAA2A0B1175
:10051800643083120313810007147508F700740808
:10052800F6000A128A11D9240A128A1183120313B7
:10053800071087154908F7004808F6000A128A11BB
:10054800D9240A128A118312031387110B1CAD2AAE
:10055800AE2A272B83120313861BB32AB42AD02A68
:10056800861FB72AB82AB42A7308803AFF00803059
:100578007F02031DC12A013072020318C42AC52A4A
:10058800CE2A7208013EF20073080318013E003EAD
:10059800F300D02AF201F30183120313061BD52AB4
:1005A800D62AF42A061FD92ADA2AD62A7108803AC6
:1005B800FF0080307F02031DE32A04307002031815
:1005C800E62AE72AF02A7008013EF00071080318AD
:1005D800013E003EF100F42A0130F0000030F10045
:1005E80083120313861AF92AFA2A182B861EFD2A63
:1005F800FE2AFA2A7108803AFF0080307F02031D24
:10060800072B02307002031C0A2B0B2B142B7008CB
:10061800FF3EF00071080318013EFF3EF100182B61
:100628000430F0000030F10083120313061A1D2B6A
:100638001E2B262B061E212B222B1E2B0130C4001D
:100648000030C5000B107B08FF007A088A00790E7D
:100658008300FE0E7E0E090083120313AC01A71F50
:10066800362B372B3E2BA609A709A60A0319A70A7A
:10067800AC01AC0AA91F412B422B4B2BA809A90995
:10068800A80A0319A90A0130AA002A08AC06AD0174
:10069800AE01260827040319522B532B8A2BAB01D2
:1006A800AB0A612B01300310A60DA70DFF3E031DF9
:1006B800572B0130AA002A08AB07A71F642B652B0C
:1006C800562B01300310AD0DAE0DFF3E031D662BFA
:1006D80027082902031D722B26082802031C752BE4
:1006E800762B7D2B2608A8022708031CA903A9023C
:1006F8002D1401300310A70CA60CFF3E031D7E2B02
:100708000130AB02031D892B8A2B652B2C0803199A
:100718008E2B8F2B942BAD09AE09AD0A0319AE0AA7
:100728002E08A7002D08A600080083120313A000B6
:1007380007302006031DA12BA22BA62B7030831691
:1007480003138F04063083122006031DAC2BAD2B38
:10075800B32B831603130F088F3960388F000530C9
:1007680083122006031DB92BBA2BC02B8316031343
:100778000F088F3950388F00043083122006031D6C
:10078800C62BC72BCD2B831603130F088F39403880
:100798008F00033083122006031DD32BD42BDA2BB2
:1007A800831603130F088F3930388F0002308312F5
:1007B8002006031DE02BE12BE72B831603130F08FC
:1007C8008F3920388F0083122003031DEC2BED2B6B
:1007D800F32B831603130F088F3910388F008312F9
:1007E8002008031DF82BF92BFD2B8F3083160313DC
:1007F8008F05831603130F140800831203130510C3
:10080800831603130514831603170814831203139E
:10081800851083160313851483160317881483120F
:1008280003130511831603130515831603170815FB
:100838008312031385118316031385158316031773
:100848008815831203139F131F17831603139F1210
:100858001F129F13831203131F14073083120313ED
:10086800A000A00B352C00000800831203133408E5
:10087800A7003308A60035083702A0003608031C75
:10088800360A3802A10031082F02A2003208031CE0
:10089800320A3002A3000A128A116E240A128A113F
:1008A800831203132108A9002008A8000A128A113C
:1008B80030230A128A118312031335082607B90058
:1008C80036080318360A2707BA003A08B00039086C
:1008D800AF00080083120313A401A501201C752C86
:1008E800762C7C2C2208A4070318A50A2308A50740
:1008F80001300310A20DA30DFF3E031D7D2C013016
:100908000310A10CA00CFF3E031D842C2008210419
:10091800031D8F2C902C722C2508A1002408A00000
:10092800080083120313A100831603178C189D2C4B
:100938009E2C982C831203132108831203178D0011
:10094800831203132008831203178C0083160317DE
:100958008C130C158B1355308D00AA308D008C1418
:100968000C118B170800831603130715FE3092002D
:100978000C308312031397008C1003309204121565
:100988008C1CC72CC82CC42C83160313071187147E
:100998000C30831203139D008C108C1CD42CD52C86
:1009A800D12C8316031387100800E72C0330F800B6
:1009B800F80BDC2CDF2C7608FF3EF60077080318CE
:1009C800013EFF3EF7007708803AFF0080307F0243
:1009D800031DF02C013076020318F32CF42CDA2CCA
:1009E800080083120313A000831603178C18FD2C2C
:1009F800FE2CF82C0C18012D022DF82C8312031351
:100A08002008831203178D00831603178C130C1408
:100A1800831203170C0808008B178B160B1183160B
:100A28000313811281110108F839043881006430F8
:100A3800831203138100C601C70108008316031738
:100A48008901831603138601803087008801831289
:100A58000313870188010800F0308316031386000A
:100A68008B150B10F0309600F030950081130800BC
:08400000FF3FFF3FFF3FFF3FC0
:04400E00D420FF3F7C
:00000001FF
