:060000000A128A11F42F20
:100B0E008316031789018316031386018701880153
:100B1E008312031387018801080083160313071538
:100B2E00FE3092000C308312031397008C100330AA
:100B3E00920412158C1CA42DA52DA12D8316031322
:100B4E00071187140C30831203139D008C108C1C1C
:100B5E00B12DB22DAE2D83160313871008000A1285
:100B6E008A1187250A128A1104300A128A11652603
:100B7E000A128A110A128A1130260A128A110A12D0
:100B8E008A1194250A128A110A128A112D270A1225
:100B9E008A115330FD00FD0BD22DCB2D0A128A1176
:100BAE000028F401F501701CDD2DDE2DE42D7208F8
:100BBE00F4070318F50A7308F50701300310F20D58
:100BCE00F30DFF3E031DE52D01300310F10CF00C6B
:100BDE00FF3E031DEC2D70087104031DF72DF82D3B
:100BEE00DA2D7508F1007408F00008008312031363
:100BFE002908F7002808F6002A082C02F0002B0816
:100C0E00031C2B0A2D02F10026082402F2002708ED
:100C1E00031C270A2502F3000A128A11D8250A128C
:100C2E008A117108F9007008F8000A128A11C42698
:100C3E000A128A11831203132A087607FB002B0867
:100C4E0003182B0A7707FC007C08A5007B08A4007C
:100C5E00080083120313051083160313051483165D
:100C6E0003170814831203138510831603138514B8
:100C7E0083160317881483120313051183160313A7
:100C8E000515831603170815831203138511831692
:100C9E0003138515831603178815831203139F13E9
:100CAE001F17831603139F121F129F138312031312
:100CBE001F140830F000F00B622E0800F000073011
:100CCE007006031D6B2E6C2E702E70308316031360
:100CDE008F0406307006031D752E762E7C2E83161D
:100CEE0003130F088F3960388F0005307006031D0F
:100CFE00812E822E882E831603130F088F395038BB
:100D0E008F0004307006031D8D2E8E2E942E8316AA
:100D1E0003130F088F3940388F0003307006031D00
:100D2E00992E9A2EA02E831603130F088F39303862
:100D3E008F0002307006031DA52EA62EAC2E831634
:100D4E0003130F088F3920388F007003031DB02E48
:100D5E00B12EB72E831603130F088F3910388F005C
:100D6E007008031DBB2EBC2EC02E8F3083160313AE
:100D7E008F05831603130F14080083120313A101AA
:100D8E00F71FCA2ECB2ED22EF609F709F60A031933
:100D9E00F70AA101A10AF91FD52ED62EDF2EF809CA
:100DAE00F909F80A0319F90A0130FA007A08A106BE
:100DBE00A201A301760877040319E62EE72E1E2F53
:100DCE00A001A00AF52E01300310F60DF70DFF3E1F
:100DDE00031DEB2E0130FA007A08A007F71FF82E3C
:100DEE00F92EEA2E01300310A20DA30DFF3E031DB6
:100DFE00FA2E77087902031D062F76087802031C57
:100E0E00092F0A2F112F7608F8027708031CF90311
:100E1E00F902221401300310F70CF60CFF3E031DED
:100E2E00122F0130A002031D1D2F1E2FF92E210897
:100E3E000319222F232F282FA209A309A20A03196F
:100E4E00A30A2308F7002208F6000800C330831215
:100E5E0003139F05073083120313AE00AE0B352F1D
:100E6E000000831203139F149F183E2F3F2F3B2F1A
:100E7E000C131E08AE00AF012E08A4002F08A5000B
:100E8E000030A600A700FF30A8000030A9003F30B8
:100E9E00AA000030AB007D30AC000030AD000A126D
:100EAE008A11FD250A128A11831203132508B60032
:100EBE002408B5003508880003303505B30000302E
:100ECE003605B4003608AF003508AE000310AF0C7F
:100EDE00AE0C0310AF0CAE0CFF302E05B10000307F
:100EEE002F05B2003308AE00AE0E17082E06CF390E
:100EFE002E069700310895001F08C33904389F004D
:100F0E00073083120313AE00AE0B8B2F000083123B
:100F1E0003139F149F18942F952F912F0C131E08B7
:100F2E00AE00AF012E08A4002F08A5000030A600C9
:100F3E00A700FF30A8000030A9003F30AA00003003
:100F4E00AB007D30AC000030AD000A128A11FD25D9
:100F5E000A128A11831203132508B6002408B5005D
:100F6E0003303505B30000303605B4003608AF0047
:100F7E003508AE000310AF0CAE0C0310AF0CAE0C68
:100F8E00FF302E05B10000302F05B20033080139B5
:100F9E00AE00AE0E1D082E06EF392E069D0034084B
:100FAE00AF003308AE000310AF0CAE0C2E080139A3
:100FBE00B000B00EB00D1D083006DF3930069D00B2
:100FCE0031089B00043083120313AF003D30AE0096
:100FDE00AE0BEF2FAF0BEF2F080083120313B101EF
:100FEE00B201B301B401B501B60183010A128A112F
:020FFE00B62D0E
:08400000FF3FFF3FFF3FFF3FC0
:04400E00D420FF3F7C
:00000001FF
