:060000000A128A1110280B
:10000800FE00030EF8000408F9000A08FA007F0849
:10001800FB000A128A11122B0A128A111328F00106
:10002800F101F201F301F401F50183133F3084007B
:1000380050300A128A11F7270A128A1183010A120C
:100048008A11CC2BAA298C128C1E2B282C28282804
:1000580031301A06031D31283228CB298C12730837
:10006800803AFF0080307F02031D3C280230720274
:1000780003183F28402849287208013EF2007308F7
:100088000318013E003EF3004B28F201F3010A1267
:100098008A11A9270A128A11CB298C128C1E55287D
:1000A8005628522831301A06031D5B285C28682818
:1000B8007203730403196128622868280A128A11D6
:1000C800F8250A128A11CB2931301A06031D6D282A
:1000D8006E28CB2972037304031D73287428CB2957
:1000E8000A128A1144240A128A11CB298C128C1EF6
:1000F8007E287F287B2831301A06031D842885280E
:100108008A280130F0000030F100AB2832301A069E
:10011800031D8F28902895280230F0000030F10048
:10012800AB2833301A06031D9A289B28A0280330D1
:10013800F0000030F100AB2834301A06031DA52862
:10014800A628AB280430F0000030F100AB280A12D2
:100158008A1120270A128A11831203138C12CB29C1
:10016800023072067304031DBA28BB28CB290A1271
:100178008A1588270A128A11831203134F08A600CA
:100188004D08A7004E080A128A1159260A128A1128
:10019800831203132708CC002608CB004C08B000B4
:1001A8004B08AF000030B100B200B430B3000030EB
:1001B800B4003F30B5000030B6007D30B7000030E5
:1001C800B8000A128A11EB260A128A118312031345
:1001D8003008CC002F08CB00CB29023072067304FC
:1001E800031DF728F828CB290A128A1588270A122E
:1001F8008A11831203134F08A6004D08A7004E0862
:100208000A128A1159260A128A118312031327081F
:10021800CA002608C9004A08B0004908AF000030E3
:10022800B100B200B430B3000030B4003F30B500C4
:100238000030B6007D30B7000030B8000A128A11CD
:10024800EB260A128A11831203133008CA002F08FA
:10025800C900CB29023072067304031D34293529DD
:10026800CB290A128A1588270A128A1183120313C6
:100278004F08A6004D08A7004E080A128A115926F1
:100288000A128A11831203132708F5002608F400BE
:100298007508B0007408AF000030B100B200B43087
:1002A800B3000030B4000930B5000030B6001A3091
:1002B800B7000030B8000A128A11EB260A128A1118
:1002C800831203133008F5002F08F400CB290230FD
:1002D80072067304031D71297229CB290A128A1523
:1002E80088270A128A11831203134F08A6004D08A3
:1002F800A7004E080A128A1159260A128A11831277
:1003080003132708C4002608C3004408B0004308A4
:10031800AF000030B100B200B430B3000030B40018
:100328000930B5000030B6001430B7000030B8000E
:100338000A128A11EB260A128A1183120313300853
:10034800C4002F08C300CB298C12CB2983120313B6
:100358001A08BB00BC013C08003A0319B429A829B3
:100368003B08613A03192728033A03195128013A2F
:1003780003197A28073A0319B428013A0319F1280E
:10038800033A03192E29013A03196B29A8290800F1
:10039800C330831203139F05073083120313BB0076
:1003A800BB0BD4290000831203139F149F18DD2967
:1003B800DE29DA290C1372087304031DE429E529E0
:1003C800062A1E08BB00BC013B08AF003C08B00071
:1003D8000030B100B200FF30B3000030B4003F304D
:1003E800B5000030B6007D30B7000030B8000A1202
:1003F8008A11EB260A128A11831203133008CC00E3
:100408002F08CB0003304B05C70000304C05C8004F
:100418004C08BC004B08BB000310BC0CBB0C031001
:10042800BC0CBB0CFF303B05C50000303C05C600CA
:100438004708BB00BB0E17083B06CF393B069700A1
:10044800450895001F08C33904389F0007308312F8
:100458000313BB00BB0B2E2A0000831203139F1447
:100468009F18372A382A342A0C1372087304031D7C
:100478003E2A3F2A602A1E08BB00BC013B08AF0089
:100488003C08B0000030B100B200FF30B3000030CB
:10049800B4003F30B5000030B6007D30B700003002
:1004A800B8000A128A11EB260A128A118312031362
:1004B8003008CA002F08C90003304905C7000030BA
:1004C8004A05C8004A08BC004908BB000310BC0C18
:1004D800BB0C0310BC0CBB0CFF303B05C500003047
:1004E8003C05C60047080139BB00BB0E1D083B068A
:1004F800EF393B069D004808BC004708BB000310C5
:10050800BC0CBB0C3B080139BD00BD0EBD0D1D0860
:100518003D06DF393D069D0045089B001F08C3398D
:1005280008389F00073083120313BB00BB0B9A2ABD
:100538000000831203139F149F18A32AA42AA02A39
:100548000C1372087304031DAA2AAB2ACC2A1E08AE
:10055800BB00BC013B08AF003C08B0000030B10054
:10056800B200FF30B3000030B4000930B5000030ED
:10057800B6001A30B7000030B8000A128A11EB260C
:100588000A128A11831203133008F5002F08F400A9
:100598001F08C3390C389F00073083120313BB00B0
:1005A800BB0BD42A0000831203139F149F18DD2A63
:1005B800DE2ADA2A0C1372087304031DE42AE52ADA
:1005C800062B1E08BB00BC013B08AF003C08B0006E
:1005D8000030B100B200FF30B3000030B400093081
:1005E800B5000030B6001430B7000030B8000A1269
:1005F8008A11EB260A128A11831203133008C400E9
:100608002F08C300113083120313BC003930BB001C
:10061800BB0B0C2BBC0B0C2B112B08000B1D152B2B
:10062800162B352B0B11643083120313810007142A
:100638007508F7007408F6000A128A155A270A1274
:100648008A1183120313071087154408F70043081B
:10065800F6000A128A155A270A128A1183120313FE
:1006680087110B1C382B392BC12B83120313861BC4
:100678003E2B3F2B602B861F422B432B3F2B7308AF
:10068800803AFF0080307F02031D4C2B023072023B
:1006980003184F2B502B592B7208013EF200730898
:1006A8000318013E003EF3005B2BF201F3010A122E
:1006B8008A11D0270A128A1183120313061B652B8D
:1006C800662B892B061F692B6A2B662B7108803ACB
:1006D800FF0080307F02031D732B04307002031863
:1006E800762B772B802B7008013EF00071080318D9
:1006F800013E003EF100842B0130F0000030F10093
:100708000A128A1151270A128A1183120313861AB0
:100718008E2B8F2BB22B861E922B932B8F2B71082F
:10072800803AFF0080307F02031D9C2B023070024C
:10073800031C9F2BA02BA92B7008FF3EF00071080B
:100748000318013EFF3EF100AD2B0430F0000030ED
:10075800F1000A128A1151270A128A11831203130F
:10076800061AB72BB82BC02B061EBB2BBC2BB82BDD
:100778000130BF000030C0000B107B08FF007A0872
:100788008A0079088400780E8300FE0E7E0E090028
:100798000A128A153A270A128A1104300A128A1193
:1007A80090250A128A110A128A11B3260A128A118E
:1007B8000A128A15DE270A128A110A128A15482790
:1007C8000A128A110A128A152E270A128A110A1287
:1007D8008A1571270A128A110130F0000030F100E1
:1007E80083120313BF01C0010814831203138C1E64
:1007F800FE2BFF2B042C0A128A1126200A128A11BA
:10080800720373040319092C0A2C262C0A128A1164
:10081800CC210A128A11831203133F034004031DDB
:10082800162C172C1E2CBF01C0010A128A11F8259C
:100838000A128A11523083120313BE00BE0B222CF7
:100848000000F92B72037304031D2B2C2C2CF92B9D
:10085800831203133F034004031D332C342C3B2C19
:10086800BF01C0010A128A1144240A128A110A120D
:100878008A11CC210A128A111E2C0A128A111028F8
:1008880070037104031D492C4A2C4F2C8312031347
:10089800A301A401792C023070067104031D552CA4
:1008A800562C5D2C043083120313A3000030A400DF
:1008B800792C033070067104031D632C642C6B2C97
:1008C800083083120313A3000030A400792C0430ED
:1008D80070067104031D712C722C792C0C30831254
:1008E8000313A3000030A400792C831203132308F8
:1008F8000A128A15A1270A128A1183120313A1006A
:10090800A2012108CB002208CC002308013E0A12CC
:100918008A15A1270A128A1183120313A100A201C2
:100928002108C9002208CA002308023E0A128A15B3
:10093800A1270A128A1183120313A100A201210818
:10094800F4002208F5002308033E0A128A15A1279D
:100958000A128A1183120313A100A2012108C300FD
:100968002208C400080083120313A20030302206B4
:10097800031DBF2CC02CC32CA001A101262D313092
:100988002206031DC82CC92CCE2C0130A000003033
:10099800A100262D32302206031DD32CD42CD92CAD
:1009A8000230A0000030A100262D33302206031D9E
:1009B800DE2CDF2CE42C0330A0000030A100262D13
:1009C80034302206031DE92CEA2CEF2C0430A00059
:1009D8000030A100262D35302206031DF42CF52CFD
:1009E800FA2C0530A0000030A100262D3630220652
:1009F800031DFF2C002D052D0630A0000030A1009E
:100A0800262D37302206031D0A2D0B2D102D0730F9
:100A1800A0000030A100262D38302206031D152D18
:100A2800162D1B2D0830A0000030A100262D3930CE
:100A38002206031D202D212D262D0930A00000306F
:100A4800A100262D080083120313AC01A71F2D2D2A
:100A58002E2D352DA609A709A60A0319A70AAC0148
:100A6800AC0AA91F382D392D422DA809A909A80AB1
:100A78000319A90A0130AA002A08AC06AD01AE0183
:100A8800260827040319492D4A2D812DAB01AB0AED
:100A9800582D01300310A60DA70DFF3E031D4E2D46
:100AA8000130AA002A08AB07A71F5B2D5C2D4D2D2E
:100AB80001300310AD0DAE0DFF3E031D5D2D27085F
:100AC8002902031D692D26082802031C6C2D6D2D93
:100AD800742D2608A8022708031CA903A9022D14AF
:100AE80001300310A70CA60CFF3E031D752D013025
:100AF800AB02031D802D812D5C2D2C080319852D3B
:100B0800862D8B2DAD09AE09AD0A0319AE0A2E0844
:100B1800A7002D08A600080083120313A0000730C1
:100B28002006031D982D992D9D2D703083160313D3
:100B38008F04063083122006031DA32DA42DAA2D91
:100B4800831603130F088F3960388F00053083121E
:100B58002006031DB02DB12DB72D831603130F08E2
:100B68008F3950388F00043083122006031DBD2DA5
:100B7800BE2DC42D831603130F088F3940388F00FC
:100B8800033083122006031DCA2DCB2DD12D8316C9
:100B980003130F088F3930388F0002308312200674
:100BA800031DD72DD82DDE2D831603130F088F397B
:100BB80020388F0083122003031DE32DE42DEA2D36
:100BC800831603130F088F3910388F0083122008FB
:100BD800031DEF2DF02DF42D8F30831603138F0591
:100BE800831603130F14080070037104031DFD2DF1
:100BF800FE2D032E83120313A201A3012D2E023012
:100C080070067104031D092E0A2E112E043083125A
:100C18000313A2000030A3002D2E033070067104C8
:100C2800031D172E182E1F2E083083120313A2003F
:100C38000030A3002D2E043070067104031D252EEC
:100C4800262E2D2E0C3083120313A2000030A30091
:100C58002D2E831203134B08A00022080A128A15AE
:100C6800BC270A128A11831203134908A00022081C
:100C7800013E0A128A15BC270A128A1174088312C7
:100C88000313A0002208023E0A128A15BC270A1282
:100C98008A11831203134308A0002208033E0A1294
:100CA8008A15BC270A128A11080083120313AC00A4
:100CB80027080A128A11B7240A128A118312031309
:100CC8002108AE002008AD0026080A128A11B724B0
:100CD8000A128A11831203132108B0002008AF00FA
:100CE8002C080A128A11B7240A128A1183120313D4
:100CF8002108B2002008B1003208A1003108A00084
:100D08006430A2000030A3000A128A1182270A1256
:100D18008A11831203132008A8002108A9003008AB
:100D2800A1002F08A0000A30A2000030A3000A1278
:100D38008A1182270A128A118312031320082807AE
:100D4800AA0021080318210A2907AB002D082A0741
:100D5800A6002E0803182E0A2B07A70008008312E6
:100D680003130510831603130514831603170814B9
:100D78008312031385108316031385148316031730
:100D8800881483120313051183160313051583169C
:100D9800031708158312031385118316031385158A
:100DA800831603178815831203139F131F178316BF
:100DB80003139F121F129F13831203131F1407306C
:100DC80083120313A000A00BE72E00000800831273
:100DD80003133408A7003308A60035083702A0001B
:100DE8003608031C360A3802A10031082F02A20077
:100DF8003208031C320A3002A3000A128A11822721
:100E08000A128A11831203132108A9002008A800D6
:100E18000A128A1127250A128A1183120313350828
:100E28002607B90036080318360A2707BA003A0811
:100E3800B0003908AF0008003D2F831203130808DB
:100E4800F03901388800502F831203130808F0394D
:100E580002388800502F831203130808F039043829
:100E68008800502F831203130808F03908388800C7
:100E7800502F7108003A0319422F502F7008013A79
:100E88000319212F033A0319282F013A03192F2F89
:100E9800073A0319362F502F08006E2F83120313B9
:100EA8000808F03901388800812F831203130808D5
:100EB800F03902388800812F831203130808F039AB
:100EC80004388800812F831203130808F039083882
:100ED8008800812F7108003A0319732F812F700839
:100EE800013A0319522F033A0319592F013A0319EA
:100EF800602F073A0319672F812F08008312031305
:100F0800A401A501201C892F8A2F902F2208A4074D
:100F18000318A50A2308A50701300310A20DA30D85
:100F2800FF3E031D912F01300310A10CA00CFF3EC2
:100F3800031D982F20082104031DA32FA42F862FFB
:100F48002508A1002408A0000800BF2F831203135E
:100F580008080F3910388800CF2F831203130808A8
:100F68000F3920388800CF2F8312031308080F3950
:100F780040388800CF2F7308003A0319C42FCF2FA9
:100F88007208003A0319AA2F013A0319B12F033A3C
:100F98000319B82FCF2F0800E62F83120313080870
:100FA8000F3910388800F62F8312031308080F39F9
:100FB80020388800F62F8312031308080F394038A9
:100FC8008800F62F7308003A0319EB2FF62F7208E2
:100FD800003A0319D12F013A0319D82F033A0319FC
:100FE800DF2FF62F080064008001840A0406031925
:060FF80000340406F82F8E
:101E5C00F0308316031386008B150B10F0309600B0
:101E6C00F03095008113080083160317890183163F
:101E7C0003138601803087008801831203138701C6
:101E8C00880108008B178B160B1183160313811214
:101E9C0081110108F839043881006430831203136E
:101EAC008100C101C2010800632F7608FF3EF600D5
:101EBC0077080318013EFF3EF7007708803AFF00D1
:101ECC0080307F02031D6C2F0130760203186F2FB8
:101EDC00702F5B2F080019308316031399009A0199
:101EEC0083160317871583160313181518128312FC
:101EFC0003139817831603139816831203130C12EB
:101F0C0018160800831203138C128C1E8E2F8F2F21
:101F1C008B2F1A08CE008C128C1E952F962F922F79
:101F2C001A08CF008C128C1E9C2F9D2F992F1A08EB
:101F3C00CD008C12080083120313A0008316031724
:101F4C008C18A92FAA2FA42F0C18AD2FAE2FA42FAD
:101F5C00831203132008831203178D0083160317B3
:101F6C008C130C14831203170C0808008312031330
:101F7C00A100831603178C18C42FC52FBF2F8312F3
:101F8C0003132108831203178D00831203132008F7
:101F9C00831203178C00831603178C130C158B13E9
:101FAC0055308D00AA308D008C140C118B17080045
:101FBC00831603130715FE3092000C3083120313A3
:101FCC0097008C100330920412158C1CEE2FEF2FFF
:101FDC00EB2F83160313071187140C308312031392
:101FEC009D008C108C1CFB2FFC2FF82F83160313D9
:041FFC008710080042
:08400000FF3FFF3FFF3FFF3FC0
:04400E00D420FF3F7C
:00000001FF
